{
  "contractName": "ExampleTokenCrowdsale",
  "abi": [
    {
      "constant": true,
      "inputs": [],
      "name": "rate",
      "outputs": [
        {
          "name": "",
          "type": "uint256"
        }
      ],
      "payable": false,
      "stateMutability": "view",
      "type": "function"
    },
    {
      "constant": true,
      "inputs": [],
      "name": "cap",
      "outputs": [
        {
          "name": "",
          "type": "uint256"
        }
      ],
      "payable": false,
      "stateMutability": "view",
      "type": "function"
    },
    {
      "constant": true,
      "inputs": [],
      "name": "weiRaised",
      "outputs": [
        {
          "name": "",
          "type": "uint256"
        }
      ],
      "payable": false,
      "stateMutability": "view",
      "type": "function"
    },
    {
      "constant": true,
      "inputs": [
        {
          "name": "",
          "type": "address"
        }
      ],
      "name": "contributions",
      "outputs": [
        {
          "name": "",
          "type": "uint256"
        }
      ],
      "payable": false,
      "stateMutability": "view",
      "type": "function"
    },
    {
      "constant": true,
      "inputs": [],
      "name": "capReached",
      "outputs": [
        {
          "name": "",
          "type": "bool"
        }
      ],
      "payable": false,
      "stateMutability": "view",
      "type": "function"
    },
    {
      "constant": true,
      "inputs": [],
      "name": "wallet",
      "outputs": [
        {
          "name": "",
          "type": "address"
        }
      ],
      "payable": false,
      "stateMutability": "view",
      "type": "function"
    },
    {
      "constant": true,
      "inputs": [],
      "name": "investorMinCap",
      "outputs": [
        {
          "name": "",
          "type": "uint256"
        }
      ],
      "payable": false,
      "stateMutability": "view",
      "type": "function"
    },
    {
      "constant": false,
      "inputs": [
        {
          "name": "_beneficiary",
          "type": "address"
        }
      ],
      "name": "buyTokens",
      "outputs": [],
      "payable": true,
      "stateMutability": "payable",
      "type": "function"
    },
    {
      "constant": true,
      "inputs": [],
      "name": "investorHardCap",
      "outputs": [
        {
          "name": "",
          "type": "uint256"
        }
      ],
      "payable": false,
      "stateMutability": "view",
      "type": "function"
    },
    {
      "constant": true,
      "inputs": [],
      "name": "token",
      "outputs": [
        {
          "name": "",
          "type": "address"
        }
      ],
      "payable": false,
      "stateMutability": "view",
      "type": "function"
    },
    {
      "inputs": [
        {
          "name": "_rate",
          "type": "uint256"
        },
        {
          "name": "_wallet",
          "type": "address"
        },
        {
          "name": "_token",
          "type": "address"
        },
        {
          "name": "_cap",
          "type": "uint256"
        }
      ],
      "payable": false,
      "stateMutability": "nonpayable",
      "type": "constructor"
    },
    {
      "payable": true,
      "stateMutability": "payable",
      "type": "fallback"
    },
    {
      "anonymous": false,
      "inputs": [
        {
          "indexed": true,
          "name": "purchaser",
          "type": "address"
        },
        {
          "indexed": true,
          "name": "beneficiary",
          "type": "address"
        },
        {
          "indexed": false,
          "name": "value",
          "type": "uint256"
        },
        {
          "indexed": false,
          "name": "amount",
          "type": "uint256"
        }
      ],
      "name": "TokenPurchase",
      "type": "event"
    },
    {
      "constant": true,
      "inputs": [],
      "name": "getTokensLeft",
      "outputs": [
        {
          "name": "",
          "type": "uint256"
        }
      ],
      "payable": false,
      "stateMutability": "view",
      "type": "function"
    }
  ],
  "bytecode": "0x60806040526803cb71f51fc558000060055568056bc75e2d63100000600655600060075534801561002f57600080fd5b50604051608080610a6d833981018060405281019080805190602001909291908051906020019092919080519060200190929190805190602001909291905050508084848460008311151561008357600080fd5b600073ffffffffffffffffffffffffffffffffffffffff168273ffffffffffffffffffffffffffffffffffffffff16141515156100bf57600080fd5b600073ffffffffffffffffffffffffffffffffffffffff168173ffffffffffffffffffffffffffffffffffffffff16141515156100fb57600080fd5b8260028190555081600160006101000a81548173ffffffffffffffffffffffffffffffffffffffff021916908373ffffffffffffffffffffffffffffffffffffffff160217905550806000806101000a81548173ffffffffffffffffffffffffffffffffffffffff021916908373ffffffffffffffffffffffffffffffffffffffff16021790555050505060008111151561019557600080fd5b8060048190555050505050506108bd806101b06000396000f3006080604052600436106100af576000357c0100000000000000000000000000000000000000000000000000000000900463ffffffff1680632c4e722e146100ba578063355274ea146100e55780634042b66f1461011057806342e94c901461013b5780634f93594514610192578063521eb273146101c1578063b25d7f5414610218578063de5f986614610243578063ec8ac4d81461026e578063ed5db874146102a4578063fc0c546a146102cf575b6100b833610326565b005b3480156100c657600080fd5b506100cf6103f4565b6040518082815260200191505060405180910390f35b3480156100f157600080fd5b506100fa6103fa565b6040518082815260200191505060405180910390f35b34801561011c57600080fd5b50610125610400565b6040518082815260200191505060405180910390f35b34801561014757600080fd5b5061017c600480360381019080803573ffffffffffffffffffffffffffffffffffffffff169060200190929190505050610406565b6040518082815260200191505060405180910390f35b34801561019e57600080fd5b506101a761041e565b604051808215151515815260200191505060405180910390f35b3480156101cd57600080fd5b506101d661042d565b604051808273ffffffffffffffffffffffffffffffffffffffff1673ffffffffffffffffffffffffffffffffffffffff16815260200191505060405180910390f35b34801561022457600080fd5b5061022d610453565b6040518082815260200191505060405180910390f35b34801561024f57600080fd5b50610258610459565b6040518082815260200191505060405180910390f35b6102a2600480360381019080803573ffffffffffffffffffffffffffffffffffffffff169060200190929190505050610326565b005b3480156102b057600080fd5b506102b961046c565b6040518082815260200191505060405180910390f35b3480156102db57600080fd5b506102e4610472565b604051808273ffffffffffffffffffffffffffffffffffffffff1673ffffffffffffffffffffffffffffffffffffffff16815260200191505060405180910390f35b6000803491506103368383610497565b61033f8261060d565b90506103568260035461062b90919063ffffffff16565b6003819055506103668382610647565b8273ffffffffffffffffffffffffffffffffffffffff163373ffffffffffffffffffffffffffffffffffffffff167f623b3804fa71d67900d064613da8f94b9617215ee90799290593e1745087ad188484604051808381526020018281526020019250505060405180910390a36103dd8383610655565b6103e5610659565b6103ef83836106c4565b505050565b60025481565b60045481565b60035481565b60086020528060005260406000206000915090505481565b60006004546003541015905090565b600160009054906101000a900473ffffffffffffffffffffffffffffffffffffffff1681565b60055481565b6000806007546004540390508091505090565b60065481565b6000809054906101000a900473ffffffffffffffffffffffffffffffffffffffff1681565b6000806104a484846106c8565b600860008573ffffffffffffffffffffffffffffffffffffffff1673ffffffffffffffffffffffffffffffffffffffff1681526020019081526020016000205491506104f9838361062b90919063ffffffff16565b9050600082141515610599576040517f08c379a000000000000000000000000000000000000000000000000000000000815260040180806020018281038252603b8152602001807f6572726f723a2074686572652068617320616c7265616479206265656e20612081526020017f70757263686173652066726f6d2074686973206163636f756e742e000000000081525060400191505060405180910390fd5b60055481101580156105ad57506006548111155b15156105b857600080fd5b806007540160078190555080600860008673ffffffffffffffffffffffffffffffffffffffff1673ffffffffffffffffffffffffffffffffffffffff1681526020019081526020016000208190555050505050565b6000610624600254836106fb90919063ffffffff16565b9050919050565b6000818301905082811015151561063e57fe5b80905092915050565b6106518282610733565b5050565b5050565b600160009054906101000a900473ffffffffffffffffffffffffffffffffffffffff1673ffffffffffffffffffffffffffffffffffffffff166108fc349081150290604051600060405180830381858888f193505050501580156106c1573d6000803e3d6000fd5b50565b5050565b6106d28282610841565b6004546106ea8260035461062b90919063ffffffff16565b111515156106f757600080fd5b5050565b60008083141561070e576000905061072d565b818302905081838281151561071f57fe5b0414151561072957fe5b8090505b92915050565b6000809054906101000a900473ffffffffffffffffffffffffffffffffffffffff1673ffffffffffffffffffffffffffffffffffffffff166340c10f1983836040518363ffffffff167c0100000000000000000000000000000000000000000000000000000000028152600401808373ffffffffffffffffffffffffffffffffffffffff1673ffffffffffffffffffffffffffffffffffffffff16815260200182815260200192505050602060405180830381600087803b1580156107f757600080fd5b505af115801561080b573d6000803e3d6000fd5b505050506040513d602081101561082157600080fd5b8101908080519060200190929190505050151561083d57600080fd5b5050565b600073ffffffffffffffffffffffffffffffffffffffff168273ffffffffffffffffffffffffffffffffffffffff161415151561087d57600080fd5b6000811415151561088d57600080fd5b50505600a165627a7a72305820ab5211c1a8480658602c37ac0916cfece4e96a53da64e5da01f82219cac43b100029",
  "source": "pragma solidity ^0.4.24;\n\n\nimport \"openzeppelin-solidity/contracts/crowdsale/Crowdsale.sol\";\nimport \"openzeppelin-solidity/contracts/crowdsale/emission/MintedCrowdsale.sol\";\nimport \"openzeppelin-solidity/contracts/crowdsale/validation/CappedCrowdsale.sol\";\n\ncontract ExampleTokenCrowdsale is Crowdsale, MintedCrowdsale, CappedCrowdsale{\n\n\t//minimum investor Contribution - 20000000000000000000\n\t//minimum investor Contribution - 50000000000000000000\n\tuint256 public investorMinCap = 70000000000000000000;\n\tuint256 public investorHardCap = 100000000000000000000;\n\t\n\tuint256 totalTokensSpent = 0;\n\n\tmapping(address => uint256) public contributions;\n\n\tconstructor(uint256 _rate,\n\t  address _wallet,\n\t  ERC20 _token,\n\t  uint256 _cap)\n\tCrowdsale(_rate, _wallet, _token)\n\tCappedCrowdsale(_cap)\n\tpublic{\n\t}\n\t\n function getTokensLeft() view public returns (uint256) {\n    uint256 tokensLeft = cap - totalTokensSpent;\n    return tokensLeft;\n  }\n\n\n  function _preValidatePurchase(\n    address _beneficiary,\n    uint256 _weiAmount\n\t\n  )\n  \n \n  \n    internal\n  {\n    super._preValidatePurchase(_beneficiary, _weiAmount);\n    uint256 _existingContribution = contributions[_beneficiary];\n    uint256 _newContribution = _existingContribution.add(_weiAmount);\n\trequire (_existingContribution == 0, \"error: there has already been a purchase from this account.\");\n    require(_newContribution >= investorMinCap && _newContribution <= investorHardCap);\n\ttotalTokensSpent = totalTokensSpent + _newContribution;\n\tcontributions[_beneficiary] = _newContribution;     \n  }\n  \n}",
  "sourcePath": "C:\\Users\\juwan\\Homework 3\\Homework 3\\contracts\\ExampleTokenCrowdsale.sol",
  "compiler": {
    "name": "solc",
    "version": "0.4.26+commit.4563c3fc.Emscripten.clang"
  },
  "schemaVersion": "2.0.3",
  "updatedAt": "2020-03-25T19:48:54.034Z"
}